:1000000009C021C06DC097C01EC01DC01CC01BC050
:100010001AC019C011241FBECFE9CDBF10E0A0E661
:10002000B0E0EAE2F2E002C005900D92A436B1071A
:10003000D9F720E0A4E6B0E001C01D92AC36B207CB
:10004000E1F7CBD0F0C0DCCFBB9AC398BC98C49A80
:10005000AC9A8BB780628BBF789408950F931F93EF
:10006000CF93DF93CDB7DD27C450CDBF89D069834F
:100070007A838B839C8389819A81AB81BC81009137
:1000800064001091650020916600309167004091F6
:100090006000509161006091620070916300801B6C
:1000A000910BA20BB30B84179507A607B70788F02F
:1000B000C39A80ED97E076D0C39880ED97E072D038
:1000C0005FD06093640070936500809366009093A6
:1000D0006700CC5FCDBFDF91CF911F910F91089545
:1000E0001F920F920FB60F9211242F933F934F93AD
:1000F0005F936F937F938F939F93AF93BF93EF9390
:10010000FF933ED060936400709365008093660017
:1001100090936700FF91EF91BF91AF919F918F9165
:100120007F916F915F914F913F912F910F900FBEF3
:100130000F901F9018951F920F920FB60F921124D7
:100140008F939F93AF93BF938091680090916900C4
:10015000A0916A00B0916B000196A11DB11D809322
:10016000680090936900A0936A00B0936B00BF9100
:10017000AF919F918F910F900FBE0F901F90189588
:10018000F894609168007091690080916A00909184
:100190006B00789425E030E040E050E022D0CA01C6
:1001A000B9010895009741F0EBE2F1E03197F1F7E2
:1001B00000C000000197F6CF089583B7816083BF28
:1001C0008FB583608FBD89B7826089BF12BE789476
:1001D00017B886B1826886B90895EFDF35DF3EDF54
:1001E000FECFA1E21A2EAA1BBB1BFD010DC0AA1F48
:1001F000BB1FEE1FFF1FA217B307E407F50720F090
:10020000A21BB30BE40BF50B661F771F881F991F0A
:100210001A9469F760957095809590959B01AC0153
:0A022000BD01CF010895F894FFCF4F
:04022A00E093040059
:00000001FF
